{
  "contractName": "Addition",
  "abi": [
    {
      "inputs": [],
      "name": "sum",
      "outputs": [
        {
          "internalType": "int256",
          "name": "",
          "type": "int256"
        }
      ],
      "stateMutability": "view",
      "type": "function",
      "constant": true
    },
    {
      "inputs": [
        {
          "internalType": "int256",
          "name": "x",
          "type": "int256"
        },
        {
          "internalType": "int256",
          "name": "y",
          "type": "int256"
        }
      ],
      "name": "add",
      "outputs": [],
      "stateMutability": "nonpayable",
      "type": "function"
    }
  ],
  "bytecode": "0x60806040525f8055348015610012575f80fd5b506101cd806100205f395ff3fe608060405234801561000f575f80fd5b5060043610610034575f3560e01c8063853255cc14610038578063a5f3c23b14610056575b5f80fd5b610040610072565b60405161004d91906100a4565b60405180910390f35b610070600480360381019061006b91906100eb565b610077565b005b5f5481565b80826100839190610156565b5f819055505050565b5f819050919050565b61009e8161008c565b82525050565b5f6020820190506100b75f830184610095565b92915050565b5f80fd5b6100ca8161008c565b81146100d4575f80fd5b50565b5f813590506100e5816100c1565b92915050565b5f8060408385031215610101576101006100bd565b5b5f61010e858286016100d7565b925050602061011f858286016100d7565b9150509250929050565b7f4e487b71000000000000000000000000000000000000000000000000000000005f52601160045260245ffd5b5f6101608261008c565b915061016b8361008c565b92508282019050828112155f8312168382125f84121516171561019157610190610129565b5b9291505056fea26469706673582212207e471228fccec39266ea78254843e33432c36b4d9df4f476e6c885919e348f4864736f6c63430008150033",
  "immutableReferences": {},
  "source": "pragma solidity ^0.8.21;\r\ncontract Addition {\r\n  int public sum = 0;\r\nfunction add (int x, int y) public {\r\n    sum = x + y;\r\n  }\r\n}",
  "sourcePath": "C:\\Users\\User\\Desktop\\Project1\\contracts\\Addition.sol",
  "compiler": {
    "name": "solc",
    "version": "0.8.21+commit.d9974bed.Emscripten.clang"
  },
  "schemaVersion": "3.4.16",
  "updatedAt": "2023-12-29T20:21:14.602Z",
  "networkType": "ethereum",
  "devdoc": {
    "kind": "dev",
    "methods": {},
    "version": 1
  },
  "userdoc": {
    "kind": "user",
    "methods": {},
    "version": 1
  }
}